{
  "contractName": "bTroll",
  "abi": [
    {
      "anonymous": false,
      "inputs": [
        {
          "indexed": true,
          "internalType": "address",
          "name": "user",
          "type": "address"
        },
        {
          "indexed": false,
          "internalType": "uint256",
          "name": "etherAmount",
          "type": "uint256"
        },
        {
          "indexed": false,
          "internalType": "uint256",
          "name": "timeStart",
          "type": "uint256"
        }
      ],
      "name": "Deposit",
      "type": "event"
    },
    {
      "inputs": [
        {
          "internalType": "address",
          "name": "",
          "type": "address"
        }
      ],
      "name": "depositStart",
      "outputs": [
        {
          "internalType": "uint256",
          "name": "",
          "type": "uint256"
        }
      ],
      "stateMutability": "view",
      "type": "function"
    },
    {
      "inputs": [
        {
          "internalType": "address",
          "name": "",
          "type": "address"
        }
      ],
      "name": "etherBalanceOf",
      "outputs": [
        {
          "internalType": "uint256",
          "name": "",
          "type": "uint256"
        }
      ],
      "stateMutability": "view",
      "type": "function"
    },
    {
      "inputs": [
        {
          "internalType": "address",
          "name": "",
          "type": "address"
        }
      ],
      "name": "isDeposited",
      "outputs": [
        {
          "internalType": "bool",
          "name": "",
          "type": "bool"
        }
      ],
      "stateMutability": "view",
      "type": "function"
    },
    {
      "inputs": [],
      "name": "deposit",
      "outputs": [],
      "stateMutability": "payable",
      "type": "function"
    }
  ],
  "bytecode": "0x608060405234801561001057600080fd5b50610505806100206000396000f3fe60806040526004361061003f5760003560e01c8063179fc99f1461004457806373732024146100a9578063d0e30db014610110578063ff87930a1461011a575b600080fd5b34801561005057600080fd5b506100936004803603602081101561006757600080fd5b81019080803573ffffffffffffffffffffffffffffffffffffffff16906020019092919050505061017f565b6040518082815260200191505060405180910390f35b3480156100b557600080fd5b506100f8600480360360208110156100cc57600080fd5b81019080803573ffffffffffffffffffffffffffffffffffffffff169060200190929190505050610197565b60405180821515815260200191505060405180910390f35b6101186101b7565b005b34801561012657600080fd5b506101696004803603602081101561013d57600080fd5b81019080803573ffffffffffffffffffffffffffffffffffffffff169060200190929190505050610495565b6040518082815260200191505060405180910390f35b60016020528060005260406000206000915090505481565b60026020528060005260406000206000915054906101000a900460ff1681565b60001515600260003373ffffffffffffffffffffffffffffffffffffffff1673ffffffffffffffffffffffffffffffffffffffff16815260200190815260200160002060009054906101000a900460ff1615151461027d576040517f08c379a000000000000000000000000000000000000000000000000000000000815260040180806020018281038252601d8152602001807f4572726f722c206465706f73697420616c72656164792061637469766500000081525060200191505060405180910390fd5b67016345785d8a000034146102dd576040517f08c379a00000000000000000000000000000000000000000000000000000000081526004018080602001828103825260228152602001806104ae6022913960400191505060405180910390fd5b34600160003373ffffffffffffffffffffffffffffffffffffffff1673ffffffffffffffffffffffffffffffffffffffff1681526020019081526020016000205401600160003373ffffffffffffffffffffffffffffffffffffffff1673ffffffffffffffffffffffffffffffffffffffff16815260200190815260200160002081905550426000803373ffffffffffffffffffffffffffffffffffffffff1673ffffffffffffffffffffffffffffffffffffffff16815260200190815260200160002054016000803373ffffffffffffffffffffffffffffffffffffffff1673ffffffffffffffffffffffffffffffffffffffff168152602001908152602001600020819055506001600260003373ffffffffffffffffffffffffffffffffffffffff1673ffffffffffffffffffffffffffffffffffffffff16815260200190815260200160002060006101000a81548160ff0219169083151502179055503373ffffffffffffffffffffffffffffffffffffffff167f90890809c654f11d6e72a28fa60149770a0d11ec6c92319d6ceb2bb0a4ea1a153442604051808381526020018281526020019250505060405180910390a2565b6000602052806000526040600020600091509050548156fe4572726f722c206465706f736974206d757374206265203d20302e30303120455448a2646970667358221220f59c043e8ee9094c0cd9edf6a8883839b47f95f770daf607c5cd7f569fccab5c64736f6c63430007060033",
  "immutableReferences": {},
  "source": "// SPDX-License-Identifier: MIT\r\npragma solidity >=0.6.0 <0.8.0;\r\n\r\n\r\ncontract bTroll {\r\n\r\n\r\n  mapping(address => uint) public depositStart;\r\n  mapping(address => uint) public etherBalanceOf;\r\n\r\n  mapping(address => bool) public isDeposited;\r\n\r\n  event Deposit(address indexed user, uint etherAmount, uint timeStart);\r\n\r\n  //deposit will be on ETH side\r\n  function deposit() payable public {\r\n    require(isDeposited[msg.sender] == false, 'Error, deposit already active');\r\n    require(msg.value==1e17, 'Error, deposit must be = 0.001 ETH');\r\n\r\n    etherBalanceOf[msg.sender] = etherBalanceOf[msg.sender] + msg.value;\r\n    depositStart[msg.sender] = depositStart[msg.sender] + block.timestamp;\r\n\r\n    isDeposited[msg.sender] = true; //activate deposit status\r\n    emit Deposit(msg.sender, msg.value, block.timestamp);\r\n  }\r\n  \r\n}\r\n",
  "sourcePath": "/Users/angela/CodingProjects/EthScaling/BridgeTroll/src/contracts/bTroll.sol",
  "compiler": {
    "name": "solc",
    "version": "0.7.6+commit.7338295f.Emscripten.clang"
  },
  "schemaVersion": "3.4.1",
  "updatedAt": "2021-05-08T22:09:02.298Z",
  "devdoc": {
    "kind": "dev",
    "methods": {},
    "version": 1
  },
  "userdoc": {
    "kind": "user",
    "methods": {},
    "version": 1
  }
}